:020000040000FA
:06000000C9EF03F012003D
:0A0006000100B00700000001000037
:04001000CF0000001D
:0C00140095909592959494689598959A13
:10002000959C936A06D8010EE66E90DAE5523FEF92
:1000300000F0380EE66E8ADAE5520C0EE66E86DACD
:10004000E552800EE66E82DAE552000EE66E010E93
:10005000E66E1ADAE552E552C00EE66E77DAE55240
:100060000B0EE66E010EE66E0FDAE552E552F40E67
:10007000E66E010EE66E34DAE552E5521200800EAD
:10008000E66E64DAE5521A0EE66E010EE66EFCD9F3
:10009000E552E552C00EE66E59DAE552280EE66EDC
:1000A000010EE66EF1D9E552E552CE0EE66E4EDA5D
:1000B000E552360EE66E010EE66EE6D9E552E552E1
:1000C0008392838082B002D8DAD712008384F40E40
:1000D000E66E010EE66E04DAE552E55283948390F3
:1000E0008382CE0EE66E32DAE552390EE66E010EEE
:1000F000E66ECAD9E552E55282B272D982A4CFD057
:100100000101C951CB5DCA51CC5932E2C951CD5D13
:10011000CA51CE592DE2000ECD6FCE6BCB6FCC6B9A
:10012000C96FCA6B010EE66E11DAE552800EE66EFB
:100130000DDAE552780EE66E010EE66EA5D9E552AF
:10014000E552C00EE66E02DAE552A20EE66E010E30
:10015000E66E9AD9E552E552E80EE66E030EE66EBB
:10016000BFD9E552E552010EE66EF0D9E55287DFC0
:100170000101CB51C95DCC51CA5932E2CB51CD5DA1
:10018000CC51CE592DE2000ECD6FCE6BCB6FCC6B28
:10019000C96FCA6B010EE66ED9D9E552800EE66EC4
:1001A000D5D9E552860EE66E010EE66E6DD9E552A2
:1001B000E552C00EE66ECAD9E552A20EE66E010EF9
:1001C000E66E62D9E552E552E80EE66E030EE66E83
:1001D00087D9E552E552010EE66EB8D9E5524FDFF8
:1001E0000101CD51C95DCE51CA5933E2CD51CB5D2C
:1001F000CE51CC592EE2000ECD6FCE6BCB6FCC6BB7
:10020000C96FCA6B010EE66EA1D9E552800EE66E8B
:100210009DD9E552940EE66E010EE66E35D9E55293
:10022000E552C00EE66E92D9E552A20EE66E010EC0
:10023000E66E2AD9E552E552E80EE66E030EE66E4A
:100240004FD9E552E552010EE66E80D9E55217DF2F
:1002500026D0010EE66E7AD9E552800EE66E76D98A
:10026000E552B30EE66E010EE66E0ED9E552E5528A
:10027000C00EE66E6BD9E552C00EE66E010EE66E5C
:1002800003D9E552E552E80EE66E030EE66E28D974
:10029000E552E552010EE66E59D9E552F0DE82A62E
:1002A00033D08384F40EE66E010EE66E19D9E55262
:1002B000E55283940101C92B000ECA23010EE66E9C
:1002C00045D9E552800EE66E41D9E5523B0EE66E09
:1002D000010EE66ED9D8E552E552C00EE66E36D96B
:1002E000E5524B0EE66E010EE66ECED8E552E552B3
:1002F000F40EE66E010EE66EF3D8E552E552010EFD
:10030000E66E24D9E552BBDE82A833D08384F40E96
:10031000E66E010EE66EE4D8E552E55283940101E3
:10032000CB2B000ECC23010EE66E10D9E552800EC9
:10033000E66E0CD9E5523B0EE66E010EE66EA4D8D1
:10034000E552E552C00EE66E01D9E5525A0EE66E50
:10035000010EE66E99D8E552E552F40EE66E010EF6
:10036000E66EBED8E552E552010EE66EEFD8E552D4
:1003700086DE82AA33D08384F40EE66E010EE66E2A
:10038000AFD8E552E55283940101CD2B000ECE2368
:10039000010EE66EDBD8E552800EE66ED7D8E55248
:1003A0003B0EE66E010EE66E6FD8E552E552C00ECA
:1003B000E66ECCD8E552690EE66E010EE66E64D8A4
:1003C000E552E552F40EE66E010EE66E89D8E5526E
:1003D000E552010EE66EBAD8E55251DE80D6120023
:1003E000CF0EE66E010EE66EC9C1E6FFCAC1E6FF9A
:1003F000D0EC02F0E552E552E552E552C00EE66E51
:10040000A5D8E552CF0EE66E010EE66E3DD8E55258
:10041000E552D40EE66E010EE66ECBC1E6FFCCC10E
:10042000E6FFD0EC02F0E552E552E552E552C50E8A
:10043000E66E8CD8E552D40EE66E010EE66E24D838
:10044000E552E552D90EE66E010EE66ECDC1E6FF2D
:10045000CEC1E6FFD0EC02F0E552E552E552E5529E
:10046000CA0EE66E73D8E552D90EE66E010EE66E40
:100470000BD8E552E552F40EE66E010EE66E30D86A
:10048000E552E5523FEF00F0D9CFE6FFE1CFD9FFCB
:10049000FD0EDBCFE9FFFE0EDBCFEAFFEF500008D9
:1004A0000EE2FD0EDBCFE9FFDB2AFE0EDBCFEAFF1B
:1004B00001E3DB2AEF50E66E06D8E552E9D7E552B4
:1004C000E7CFD9FF1200D9CFE6FFE1CFD9FFFE0E6B
:1004D000DBCFE6FF50D8E552E552E7CFD9FF120057
:1004E000D9CFE6FFE1CFD9FF030EE126DE6ADD6A50
:1004F000DECF00F0DDCF01F0FD0EDBCF02F0FE0E0F
:10050000DBCF03F00250005C0350015815E2020EED
:10051000DB6ADB50006E016AD890015004E6FF0EE2
:10052000005C000E015803E2020EDB2AF2D7DF2A3C
:10053000010E01E3DB2ADCD7030EE15C02E2E16A93
:10054000E552E16EE552E7CFD9FF1200D9CFE6FFC1
:10055000E1CFD9FFFE0EDB50816E839A839C8388A6
:10056000010EE66EE66ABCDFE552E5528398E5527D
:10057000E7CFD9FF1200D9CFE6FFE1CFD9FF838AB9
:10058000FE0EDB50816E839C8388010EE66EE66A68
:10059000A7DFE552E5528398E552E7CFD9FF120075
:1005A000D9CFE6FFDACFE6FFFA0EE3CFD9FFFB0E95
:1005B000E3CFDAFFFD0EE35209E72D0EDE6EFC0EEF
:1005C000E31EE32AFD0ED8B4E306E31EE652E6522C
:1005D000E652FD0EE124E76EFF0EE220E46EE652E5
:1005E000F70EE3CFE6FFF70EE3CFE6FF40EC03F0B4
:1005F000F90EE124E96EFF0EE220EA6E30EC03F022
:100600000AE12DEC03F009E130EC03F008E12DECF8
:1006100003F007E108D03BEC03F036EC03F03BECD1
:1006200003F036EC03F03BEC03F0DE6AF90EE12652
:10063000FF0EE222FF0EE3CFDAFFE552FF0EE3CF1B
:10064000D9FFE552FC0EE124E96EFF0EE220EA6ECE
:10065000EECFF3FFEFCFF4FF1200EF380F0B1200D5
:10066000EF500F0B02E1EE52D8841200EF380F0B5F
:10067000300FDE6E1200EE500F0B300FDE6E1200E8
:10068000FC0EE3CFE9FFFD0EE3CFEAFF100EE66EAE
:10069000EE6AEE6AEF6AD890FD0EE336FE0EE336A0
:1006A000ED36ED36EF36FF0EE30609E061EC03F0C0
:1006B000EE5261EC03F0EE5261EC03F0EDD7E56E23
:1006C0001200030EEF24E8B6EF6E300EEF24E8BE02
:0406D000EF6E000CBD
:0C06D400060EF66E000EF76E000EF86EBB
:1006E00001010900F550E36F0900F550E46F03E1E3
:1006F000E36701D03DD00900F550DE6F0900F550E9
:10070000DF6F0900F550E06F09000900F550E96E50
:100710000900F550EA6E090009000900F550E16F83
:100720000900F550E26F09000900F6CFE5F1F7CFB7
:10073000E6F1F8CFE7F1DEC1F6FFDFC1F7FFE0C178
:10074000F8FF0101E15302E1E25307E00900F5502F
:10075000EE6EE107F8E2E207F9D7E5C1F6FFE6C180
:10076000F7FFE7C1F8FF0101E307000EE45BBFD725
:02077000120075
:0E077200000EF36E00EE00F0060E01D812002D
:10078000EA6002D0EE6AFCD7F350E9601200EE6A2C
:02079000FCD794
:0E07920015EE00F025EE00F0F86A059C6AEC0A
:0E07A00003F0D7EC03F00AEC00F0FBD71200D8
:0207AE00120037
:1007B00057656C636F6D6520746F00566F74696E5A
:1007C00067204D616368696E6500435F3120204397
:1007D0005F322020435F33002A202020202A20205F
:1007E00020202A202000445600450043617374698C
:1007F0006E6720766F746520746F0043616E646964
:100800006461746520312E2E2E0043616E6469642C
:1008100061746520322E2E2E0043616E646964611E
:10082000746520332E2E2E0057696E6E6572206916
:100830007320435F310057696E6E657220697320C3
:10084000435F320057696E6E657220697320435FA3
:100850003300436F6E67726174756C6174696F6E9B
:10086000732100536F6D657468696E67206973004A
:0F08700077726F6E6721212100000000000000E9
:020000040030CA
:0100010022DC
:010003000EEE
:010006008178
:00000001FF
